:0D060D0048656C6C6F20776F726C64210083
:100590001205A47BFF7A06790D751410E4FDFF1295
:0405A000051880FEBC
:1004F00010320000000000000000000000000000BA
:1005000000001021000000000000000000000000BA
:0705100000000000013100B2
:1004C80075985053890F438920AB07AA06E4F9F8B9
:1004D8007F807E70FDFC12033CEFF404F58D858D62
:0804E8008BC2ABD2ACD28E2214
:10000300C2AC1200266010F5993099FDC2997401B3
:0A00130029F9E43AFA80EBD2AC229E
:10049C00C3E531940F74809480500B74212531F88E
:1004AC00A6990531800FE4F531FE7F10FDFB7A0033
:0B04BC0079211200517B007A007921A9
:0104C7002212
:0300230002038055
:10038000C0E0C0F0C083C082C0D075D000C000C043
:1003900001C002C003C004C005C006C007309805F4
:1003A00012049CC298D007D006D005D004D003D048
:1003B00002D001D000D0D0D082D083D0F0D0E032B3
:1005DC00D2B6D2B700000000C2B600000000C2B70D
:0105EC0022EC
:10057B00C2B7C2B600000000D2B700000000D2B66E
:05058B00000000002249
:100400007E80EE601B5F7004C2B68002D2B6000030
:100410000000D2B700000000C2B7EEC313FE80E2B6
:10042000D2B600000000D2B7A2B6920000000000D1
:05043000C2B7A200B3F9
:0104350022A4
:10043600D2B67E80EE601D00000000D2B720B60561
:10044600F452078003EE420700000000C2B7EEC375
:1004560013FE80E0D2B600000000D2B70000000014
:02046600C2B71B
:010468002271
:10046900D2B67E80EE601D00000000D2B720B6052E
:10047900F452078003EE420700000000C2B7EEC342
:1004890013FE80E0C2B600000000D2B700000000F1
:02049900C2B7E8
:01049B00223E
:1005B8007590FFC2A7D2A6D2A5AF90C2A5EF20E73B
:0105C800F63C
:0105C900220F
:1005ED00AE071205B8C2A7C2A68E90D2A5C2A5228B
:1005FD00AE071205B8D2A7C2A68E90D2A5C2A5226B
:1005CA00ED7004AC078004EF2440FCEC4480FF0289
:0205DA0005ED2D
:100518008B118A1289131205CAAF141514EF6017CC
:10052800AB110513E513AA127002051214F9120093
:0805380026FF1205FD80E222FE
:1005A4007F381205ED7F0C1205ED7F061205ED7FF5
:0405B400010205ED4E
:020540008F47E3
:100542001205DC7FA0120400AF471204001205DC82
:0F0552007FA11204001204368F4812057BAF48B8
:010561002277
:100562008F498D4A1205DC7FA0120400AF491204A4
:0905720000AF4A12040002057BEF
:06014B008B088A09890AF5
:10015100AF0E150EEF70030201F7AB0BAA0CA90D40
:10016100120026C4540FFFD3940974809480501256
:10017100EF2430FEAB08050AE50AAA097014050947
:100181008010EF2437FEAB08050AE50AAA097002C0
:10019100050914F9EE12003FAB0BAA0CA90D1200D0
:1001A10026540FFFD39409748094805012EF2430A9
:1001B100FFAB08050AE50AAA09701405098010EFCA
:1001C1002437FFAB08050AE50AAA097002050914DC
:1001D100F9EF12003FAB08050AE50AAA097002050A
:1001E1000914F9742012003F7401250DF50DE43551
:1001F1000CF50C020151AB08AA09A90AE402003F5F
:10028D008B158A1689178D181205DC7FA0120400B4
:10029D00400512057B80F1AF181204001205DC7FBA
:1002AD00A1120400D3E519940174809480401912B1
:1002BD000469AB150517E517AA167002051614F992
:1002CD00EF12003F151980DC120436AB15AA16A9E2
:0802DD0017EF12003F02057B40
:1003C0008B1A8A1B891C8D1DAF1E151EEF60301203
:1003D00005DC7FA0120400400512057B80F1AF1DF3
:1003E000051D120400AB1A051CE51CAA1B700205B2
:1003F0001B14F9120026FF12040012057B80C9228B
:1002E5008B428A4389448D45D3E5469400748094B6
:1002F5008040431205DC7FA0120400400512057BF7
:1003050080F1AF45120400D3E546940074809480D3
:10031500401FAB420544E544AA437002054314F966
:10032500120026FF12040015460545E545540770E1
:07033500D612057B80B22205
:03000000020201F8
:0C020100787FE4F6D8FD75814A020248BF
:10002600BB010689828A83E0225002E722BBFE02D8
:09003600E32289828A83E493220B
:10003F00BB010689828A83F0225002F722BBFE01A0
:02004F00F3229A
:10033C00C2D5E830E70FB2D5E4C39BFBE49AFAE4EC
:10034C0099F9E498F8EC30E717B2D5120372120061
:10035C00B9E4C39BFBE49AFAE499F9E498F88003B6
:10036C001200B930D50DE4C39FFFE49EFEE49DFD61
:04037C00E49CFC22DF
:10005100EF4E6012EF60010EEDBB010B89828A83C6
:10006100F0A3DFFCDEFA2289F05007F709DFFCA9D3
:0C007100F022BBFEFCF309DFFCA9F0222A
:10020D00020590E493A3F8E493A34003F68001F272
:10021D0008DFF48029E493A3F85407240CC8C333F2
:10022D00C4540F4420C8834004F456800146F6DFC1
:10023D00E4800B01020408102040809004F0E47E5D
:10024D00019360BCA3FF543F30E509541FFEE493B6
:10025D00A360010ECF54C025E060A840B8E493A37D
:10026D00FAE493A3F8E493A3C8C582C8CAC583CAA8
:10027D00F0A3C8C582C8CAC583CADFE9DEE780BE60
:0105170000E3
:10007D0075F008758200EF2FFFEE33FECD33CDCC3A
:10008D0033CCC58233C5829BED9AEC99E5829840BD
:10009D000CF582EE9BFEED9AFDEC99FC0FD5F0D69A
:1000AD00E4CEFBE4CDFAE4CCF9A88222B800C1B9C4
:1000BD000059BA002DEC8BF084CFCECDFCE5F0CB02
:1000CD00F97818EF2FFFEE33FEED33FDEC33FCEB3B
:1000DD0033FB10D703994004EB99FB0FD8E5E4F9F6
:1000ED00FA227818EF2FFFEE33FEED33FDEC33FCE3
:1000FD00C933C910D7059BE99A4007EC9BFCE99AD7
:10010D00F90FD8E0E4C9FAE4CCFB2275F010EF2F1B
:10011D00FFEE33FEED33FDCC33CCC833C810D7071B
:10012D009BEC9AE899400AED9BFDEC9AFCE899F856
:0E013D000FD5F0DAE4CDFBE4CCFAE4C8F922E9
:00000001FF
